:020000001028C6
:10000800FE00030E83120313B0000408B1000A08AF
:10001800B2007F08B3001A281128CF01D001D101FE
:10002800D201D301D401D50183015B2C8C1ED728C2
:100038003B2483120313AD002D08B40034081C249C
:10004800031C38280430831203134F02031838287E
:100058003408AD004F08513E84002D0883138000FA
:100068000130AD002D08CF078312031334080A3A74
:10007800031DCE282E30AD002D08F0005130AE23E0
:1000880071087004031D4D280A24F001F00A00309D
:100098008723383083120313AD002D08F000513048
:1000A800AE2371087004031DA22883120313851D53
:1000B80061280B3086211E23A2280A2483120313E9
:1000C80005187928F001F00A0030872303308312DD
:1000D8000313AF008A30AE005630AD00AD0B722866
:1000E800AE0B7228AF0B72287928F001F00A0230A3
:1000F8008723033083120313AF008A30AE005630D3
:10010800AD00AD0B8528AE0B8528AF0B85288C2854
:10011800F001F00A013087230B3083120313AF007C
:100128002630AE006630AD00AD0B9828AE0B98288F
:10013800AF0B98289F28F0010130872324308312C1
:100148000313AD002D08F0005130AE237108700480
:10015800031DB128831203130510293083120313DA
:10016800AD002D08F0005130AE2371087004031D56
:10017800BE280A24333083120313AD002D08F00083
:100188005130AE2371087004031DCB281E2383123F
:100198000313CF015130AD002D08A0001F30862178
:1001A800831203138C123308FF0032088A003108C7
:1001B8008400300E8300FE0E7E0E090083120313A6
:1001C800C9007030C3004308C6000130831203130E
:1001D800C907FF30490784002822C3004308CE001E
:1001E800CE08031908004E08253A0319FE284E08C0
:1001F8005524E92883120313C7010130C907FF30CA
:10020800490784002822CE00003A03198529643A58
:10021800031912290D3A03191229E92846088400FE
:1002280083130008CA00840A0008CB000230C30008
:100238004308C607CB1F29290330C3004308C70456
:10024800CA09CB09CA0A0319CB0ACE01CE0A4E083D
:10025800053A031948294E08C3004307013E8400A4
:100268002822C4002822C50045084B02031D3E2948
:1002780044084A02031C48290130C3004308CE073A
:100288004E08053A031D2F294708033903194E293B
:100298002D305524831203134E08C3004308C800A9
:1002A800FF3083120313C3004308C8074808FF3A06
:1002B8000319E9280A30BD000030BE004808C30011
:1002C8004307013E84002822B5002822B6004B08C7
:1002D800B801B8074A08B701B7076A22831203139F
:1002E8003608C001C0073508BF01BF07E8228312DE
:1002F80003133D08303EC4004408CE004E08552480
:100308005429080083120313A4002030A1002108F7
:10031800A500013083120313A407FF3024078400CB
:100328002822A1002108AC00AC08031908002C08F9
:10033800253A0319A2292C0860248D298312031356
:10034800A6010130A407FF30240784002822AC004E
:10035800003A0319272A643A0319B6290D3A0319F2
:10036800B6298D292508840083130008A800840A6B
:100378000008A9000230A1002108A507A91FCD295E
:100388000330A1002108A604A809A909A80A03198D
:10039800A90AAC01AC0A2C08053A0319EC292C0867
:1003A800A1002107013E84002822A2002822A300E0
:1003B80023082902031DE22922082802031CEC292C
:1003C8000130A1002108AC072C08053A031DD329E8
:1003D800260803390319F2292D30602483120313E8
:1003E8002C08A1002108A700FF3083120313A100E5
:1003F8002108A7072708FF3A03198D290A30F800B2
:100408000030F9002708A1002107013E84002822B6
:10041800F0002822F1002908F301F3072808F20167
:10042800F207AA227108FB01FB077008FA01FA0714
:1004380053237808303E83120313A2002208AC002D
:100448002C086024F829080002308A000408840A6D
:1004580082070034013400340A3400346434003430
:10046800E8340334103427344534523452345F347A
:100478004E34453455345434523441344C340034B9
:1004880049344E344934543421340D340A34003458
:10049800253464340D340A3400344B3459344F3421
:1004A8004634003442345A344F344B3400344B34DD
:1004B80059344F344E34003442345A34453452346B
:1004C8000034493447344E3454340034831203130F
:1004D800BA01BB01360835040319A32ABC01BC0ABA
:1004E800B61B822A01300310B50DB60DFF3E031D61
:1004F800772A0130B9003908BC07742A0130031083
:10050800BA0DBB0DFF3E031D832A36083802031DB2
:100518008F2A35083702031C982A3508B70236088F
:10052800031CB803B8023A1401300310B60CB50C1A
:10053800FF3E031D992A0130BC02031D822A3B0895
:10054800B601B6073A08B501B5070800F501F60186
:10055800710870040319E12AF701F70AF11BC02A90
:1005680001300310F00DF10DFF3E031DB52A0130D7
:10057800F4007408F707B22A01300310F50DF60DE0
:10058800FF3E031DC12A71087302031DCD2A70089E
:100598007202031CD62A7008F2027108031CF303C6
:1005A800F302751401300310F10CF00CFF3E031D2B
:1005B800D72A0130F702031DC02A7608F101F10796
:1005C8007508F001F0070800831203133E083D0484
:1005D8000319172BC201C20ABE1BFE2A01300310E1
:1005E800BD0DBE0DFF3E031DF32A0130C1004108B9
:1005F800C207F02A3E084002031D042B3D083F02B3
:10060800031C0C2B3D08BF023E08031CC003C0029C
:1006180001300310BE0CBD0CFF3E031D0D2B013035
:10062800C202031DFE2A4008BE01BE073F08BD01E5
:10063800BD0708001430F0007008F2000130F20223
:100648000319342B20308312031386060630F10079
:100658003030F000F00B2E2BF10B2E2B0000222B4C
:100668008230F100DD30F000F00B382BF10B382B25
:100678003D2B5030F0007008F2000130F2020319EF
:10068800080020308312031386060630F10030304C
:10069800F000F00B4D2BF10B4D2B0000412B79088E
:1006A80078040319802BFD01FD0AF91B672B013023
:1006B8000310F80DF90DFF3E031D5C2B0130FC0003
:1006C8007C08FD07592B79087B02031D6D2B7808E0
:1006D8007A02031C752B7808FA027908031CFB03BD
:1006E800FB0201300310F90CF80CFF3E031D762BBA
:1006F8000130FD02031D672B7B08F901F9077A0811
:10070800F801F8070800F300700803199B2B013063
:10071800F100730A912B0310F10DFF3E031D8F2B7F
:100728007108F200720883120313D004AB2B013056
:10073800F100730AA12B0310F10DFF3E031D9F2B3F
:100748007108FF3AF200720883120313D0055008AB
:1007580085000800F500B82B0130F2007208F50793
:100768000130F2007208F00775088400831300084E
:10077800F200700884002822FF3A013E7207F30055
:100788007308F400F408031DCE2B75088400800854
:10079800031DB02B7408F000F101F01BF1030800F1
:1007A80019308316031399000611861418151812A8
:1007B80083120313981718169812831603130C1232
:1007C8008C16181383120313181383160313981225
:1007D80098168611861205108510051185158B1738
:1007E8000B170800203083120313B5003508B60034
:1007F8000B15013083120313B602031908002030C9
:1008080086062130B500B50B072CFD2B2030F000F3
:100818007008F1000B150130F102031908002030AF
:100828008312031386062130F000F00B192C0F2CCD
:10083800F300F201F20A7B3073020318272C6130AF
:10084800730203182B2C73082D24031CF201720C5D
:100858000800F100F0015B3071020318392C4130B7
:100868007102031C392CF001F00A700C0800831285
:100878000313981C412C181218168C1E412C1A08A8
:10088800080083120313B5000C1E482C3508990084
:100898000800F000831203130C1E4E2C70089900F8
:1008A800080083120313B600360845240800D42331
:1008B8001730E220F6235F2CF10071084D24080060
:02400E0070FF41
:00000001FF
