:020000001028C6
:10000800FE00030E83120313A3000408A4000A08C9
:10001800A5007F08A6001A281128FD01B201B30126
:10002800B401B501B601B7018301EC2A8C1ED828AA
:10003800C92283120313A0002008FC007C08AA220E
:10004800031C382804307D02031838287C088312E2
:100058000313A0007D08333E84002008831380002A
:100068000130A0002008FD077C080D3A031DCD28AB
:100078002B3083120313A0002008F0003330322203
:1000880071087004031D4D289322F001F00A003016
:100098000B22353083120313A0002008F000333000
:1000A800322271087004031DA22883120313851DD0
:1000B800612801303A21D621A22893228312031302
:1000C80005187928F001F00A00300B220630831257
:1000D8000313A2001330A100B130A000A00B7228B6
:1000E800A10B7228A20B72287928F001F00A0230BD
:1000F8000B22063083120313A2001330A100B13083
:10010800A000A00B8528A10B8528A20B85288C2888
:10011800F001F00A01300B220B3083120313A20006
:100128002630A1006630A000A00B9828A10B9828C3
:10013800A20B98289F28F00101300B22213083124E
:100148000313A0002008F000333032227108700435
:10015800031DB22883120313B201850126308312CE
:100168000313A0002008F000333032227108700415
:10017800031DBF289322303083120313A0002008E8
:10018800F0003330322271087004031DCC28D621C8
:10019800FD01333083120313A0002008F2001C3045
:1001A8003A21831203138C122608FF0025088A00BF
:1001B80024088400230E8300FE0E7E0E090083129D
:1001C8000313AD007030A9002908AB000130831279
:1001D8000313AD07FF302D0784009721A9002908D4
:1001E800AC00AC08031908002C08253A0319FF28AD
:1001F8002C08E622EA2883120313AA012A292B08CD
:1002080084000008AE000030AF000130A9002908C2
:10021800AB072F082E04031D15291530AE008030BA
:10022800AF002F08FF002E0884008D210038031925
:10023800EA282F08FF002E0884008D21E6220130CD
:1002480083120313AE070318AF0A15290130AD074F
:10025800FF302D0784009721AC00003A0319392993
:10026800733A03190329EA28EA280800F5007230CE
:10027800F3007308F6000130F507FF3075078400B6
:100288009721F3007308F700F708031908007708A7
:10029800253A031952297708F1223F29F4017D29CB
:1002A800760884000008F8000030F9000130F300F7
:1002B8007308F60779087804031D66291530F800D5
:1002C8008030F900790883120313FF00780884004E
:1002D8008D21003803193F29790883120313FF0081
:1002E800780884008D21F1220130F8070318F90AF3
:1002F80066290130F507FF30750784009721F7005C
:10030800003A03198C29733A031954293F293F29C4
:100318000800FF1B972983137F1883170008840A96
:100328000319FF0A080001308A000408840A8207BA
:1003380000344534523452345F344E3445345534E5
:100348005434523441344C34003449344E344934F2
:10035800543421340D340A34003428346E3475345E
:100368006C346C3429340034253473340D340A3435
:1003780000344B3459344F344634003442345A3400
:100388004F344B3400344B3459344F344E340034EA
:1003980042345A34453452340034493447344E34A4
:1003A800543400341430F0007008F2000130F202C6
:1003B8000319EC2920308312031386060630F10056
:1003C8003030F000F00BE629F10BE6290000DA29BD
:1003D8008230F100DD30F000F00BF029F10BF0294C
:1003E800F5295030F0007008F2000130F2020319CC
:1003F800080020308312031386060630F1003030DF
:10040800F000F00B052AF10B052A0000F929F3008A
:10041800700803191F2A0130F100730A152A031006
:10042800F10DFF3E031D132A7108F20072088312B2
:100438000313B2042F2A0130F100730A252A03108E
:10044800F10DFF3E031D232A7108FF3AF2007208DE
:1004580083120313B205320885000800F5003C2A10
:100468000130F2007208F5070130F2007208F00757
:100478007508840083130008F2007008840097212F
:10048800FF3A013E7207F3007308F400F408031DF5
:10049800522A750884008008031D342A7408F00065
:1004A800F101F01BF1030800CF3083160313990004
:1004B80006118614181518128312031398171816A4
:1004C8009812831603130C128C1618138312031335
:1004D800181383160313981298168611861205109E
:1004E8008510051185158B170B17080058308312D6
:1004F8000313A8000230A900013083120313A802D5
:100508000030031CA903A9022908280403190800BC
:10051800203086062130A700A70B902A802A583061
:10052800F1000230F2000130F1020030031CF20346
:10053800F2027208710403190800203083120313B1
:1005480086062130F000F00BA72A972AF300F20163
:10055800F20A7B3073020318B52A6130730203185C
:10056800B92A7308BB22031CF201720C0800F100BF
:10057800F0015B3071020318C72A41307102031C75
:10058800C72AF001F00A700C080083120313981CA4
:10059800D22AD62183120313181218168C1ED22AB7
:1005A8001A08080083120313A7000C1ED92A27086B
:1005B80099000800F000831203130C1EDF2A70084C
:1005C8009900080083120313A8002808D6220800FF
:1005D80058220D30E3207A22F02AF1007108DE2239
:0205E800080009
:02400E0070FF41
:00000001FF
